{
  "_format": "hh-sol-artifact-1",
  "contractName": "StridePool",
  "sourceName": "contracts/StridePool.sol",
  "abi": [
    {
      "inputs": [
        {
          "internalType": "address",
          "name": "_oracle",
          "type": "address"
        }
      ],
      "stateMutability": "nonpayable",
      "type": "constructor"
    },
    {
      "anonymous": false,
      "inputs": [
        {
          "indexed": true,
          "internalType": "address",
          "name": "player",
          "type": "address"
        },
        {
          "indexed": false,
          "internalType": "uint256",
          "name": "level",
          "type": "uint256"
        }
      ],
      "name": "BadgeAwarded",
      "type": "event"
    },
    {
      "anonymous": false,
      "inputs": [
        {
          "indexed": true,
          "internalType": "uint256",
          "name": "poolId",
          "type": "uint256"
        },
        {
          "indexed": true,
          "internalType": "address",
          "name": "player",
          "type": "address"
        }
      ],
      "name": "PlayerJoined",
      "type": "event"
    },
    {
      "anonymous": false,
      "inputs": [
        {
          "indexed": true,
          "internalType": "uint256",
          "name": "poolId",
          "type": "uint256"
        },
        {
          "indexed": true,
          "internalType": "address",
          "name": "creator",
          "type": "address"
        },
        {
          "indexed": false,
          "internalType": "uint256",
          "name": "stakeCost",
          "type": "uint256"
        },
        {
          "indexed": false,
          "internalType": "uint256",
          "name": "stepGoal",
          "type": "uint256"
        }
      ],
      "name": "PoolCreated",
      "type": "event"
    },
    {
      "anonymous": false,
      "inputs": [
        {
          "indexed": true,
          "internalType": "uint256",
          "name": "poolId",
          "type": "uint256"
        },
        {
          "indexed": false,
          "internalType": "uint256",
          "name": "winnerCount",
          "type": "uint256"
        },
        {
          "indexed": false,
          "internalType": "uint256",
          "name": "loserPool",
          "type": "uint256"
        }
      ],
      "name": "PoolFinalized",
      "type": "event"
    },
    {
      "anonymous": false,
      "inputs": [
        {
          "indexed": true,
          "internalType": "uint256",
          "name": "poolId",
          "type": "uint256"
        },
        {
          "indexed": true,
          "internalType": "address",
          "name": "player",
          "type": "address"
        },
        {
          "indexed": false,
          "internalType": "uint256",
          "name": "steps",
          "type": "uint256"
        },
        {
          "indexed": false,
          "internalType": "uint256",
          "name": "date",
          "type": "uint256"
        }
      ],
      "name": "StepsLogged",
      "type": "event"
    },
    {
      "anonymous": false,
      "inputs": [
        {
          "indexed": true,
          "internalType": "address",
          "name": "player",
          "type": "address"
        },
        {
          "indexed": false,
          "internalType": "uint256",
          "name": "amount",
          "type": "uint256"
        }
      ],
      "name": "Withdrawal",
      "type": "event"
    },
    {
      "inputs": [
        {
          "internalType": "address",
          "name": "",
          "type": "address"
        }
      ],
      "name": "badge",
      "outputs": [
        {
          "internalType": "uint256",
          "name": "",
          "type": "uint256"
        }
      ],
      "stateMutability": "view",
      "type": "function"
    },
    {
      "inputs": [
        {
          "internalType": "uint256",
          "name": "stepGoal",
          "type": "uint256"
        }
      ],
      "name": "createPool",
      "outputs": [
        {
          "internalType": "uint256",
          "name": "poolId",
          "type": "uint256"
        }
      ],
      "stateMutability": "payable",
      "type": "function"
    },
    {
      "inputs": [
        {
          "internalType": "uint256",
          "name": "poolId",
          "type": "uint256"
        }
      ],
      "name": "finalize",
      "outputs": [],
      "stateMutability": "nonpayable",
      "type": "function"
    },
    {
      "inputs": [
        {
          "internalType": "uint256",
          "name": "poolId",
          "type": "uint256"
        },
        {
          "internalType": "address",
          "name": "member",
          "type": "address"
        }
      ],
      "name": "getMemberSteps",
      "outputs": [
        {
          "internalType": "uint256",
          "name": "",
          "type": "uint256"
        }
      ],
      "stateMutability": "view",
      "type": "function"
    },
    {
      "inputs": [
        {
          "internalType": "uint256",
          "name": "poolId",
          "type": "uint256"
        }
      ],
      "name": "getMembers",
      "outputs": [
        {
          "internalType": "address[]",
          "name": "",
          "type": "address[]"
        }
      ],
      "stateMutability": "view",
      "type": "function"
    },
    {
      "inputs": [
        {
          "internalType": "uint256",
          "name": "poolId",
          "type": "uint256"
        }
      ],
      "name": "getPoolDetails",
      "outputs": [
        {
          "internalType": "uint256",
          "name": "stakeCost",
          "type": "uint256"
        },
        {
          "internalType": "uint256",
          "name": "stepGoal",
          "type": "uint256"
        },
        {
          "internalType": "uint256",
          "name": "memberCount",
          "type": "uint256"
        },
        {
          "internalType": "bool",
          "name": "finalized",
          "type": "bool"
        },
        {
          "internalType": "uint256",
          "name": "totalStaked",
          "type": "uint256"
        }
      ],
      "stateMutability": "view",
      "type": "function"
    },
    {
      "inputs": [
        {
          "internalType": "uint256",
          "name": "",
          "type": "uint256"
        },
        {
          "internalType": "address",
          "name": "",
          "type": "address"
        }
      ],
      "name": "hasJoined",
      "outputs": [
        {
          "internalType": "bool",
          "name": "",
          "type": "bool"
        }
      ],
      "stateMutability": "view",
      "type": "function"
    },
    {
      "inputs": [
        {
          "internalType": "uint256",
          "name": "poolId",
          "type": "uint256"
        }
      ],
      "name": "joinPool",
      "outputs": [],
      "stateMutability": "payable",
      "type": "function"
    },
    {
      "inputs": [],
      "name": "nextPoolId",
      "outputs": [
        {
          "internalType": "uint256",
          "name": "",
          "type": "uint256"
        }
      ],
      "stateMutability": "view",
      "type": "function"
    },
    {
      "inputs": [],
      "name": "oracle",
      "outputs": [
        {
          "internalType": "address",
          "name": "",
          "type": "address"
        }
      ],
      "stateMutability": "view",
      "type": "function"
    },
    {
      "inputs": [],
      "name": "owner",
      "outputs": [
        {
          "internalType": "address",
          "name": "",
          "type": "address"
        }
      ],
      "stateMutability": "view",
      "type": "function"
    },
    {
      "inputs": [
        {
          "internalType": "address",
          "name": "",
          "type": "address"
        }
      ],
      "name": "pendingWithdrawals",
      "outputs": [
        {
          "internalType": "uint256",
          "name": "",
          "type": "uint256"
        }
      ],
      "stateMutability": "view",
      "type": "function"
    },
    {
      "inputs": [
        {
          "internalType": "uint256",
          "name": "",
          "type": "uint256"
        }
      ],
      "name": "pools",
      "outputs": [
        {
          "internalType": "uint256",
          "name": "stakeCost",
          "type": "uint256"
        },
        {
          "internalType": "uint256",
          "name": "stepGoal",
          "type": "uint256"
        },
        {
          "internalType": "uint256",
          "name": "createdAt",
          "type": "uint256"
        },
        {
          "internalType": "bool",
          "name": "finalized",
          "type": "bool"
        }
      ],
      "stateMutability": "view",
      "type": "function"
    },
    {
      "inputs": [
        {
          "internalType": "uint256",
          "name": "",
          "type": "uint256"
        },
        {
          "internalType": "address",
          "name": "",
          "type": "address"
        }
      ],
      "name": "stakedAmount",
      "outputs": [
        {
          "internalType": "uint256",
          "name": "",
          "type": "uint256"
        }
      ],
      "stateMutability": "view",
      "type": "function"
    },
    {
      "inputs": [
        {
          "internalType": "uint256",
          "name": "",
          "type": "uint256"
        },
        {
          "internalType": "address",
          "name": "",
          "type": "address"
        }
      ],
      "name": "stepsSubmitted",
      "outputs": [
        {
          "internalType": "uint256",
          "name": "",
          "type": "uint256"
        }
      ],
      "stateMutability": "view",
      "type": "function"
    },
    {
      "inputs": [
        {
          "internalType": "uint256",
          "name": "poolId",
          "type": "uint256"
        },
        {
          "internalType": "uint256",
          "name": "steps",
          "type": "uint256"
        },
        {
          "internalType": "uint256",
          "name": "date",
          "type": "uint256"
        },
        {
          "internalType": "bytes",
          "name": "signature",
          "type": "bytes"
        }
      ],
      "name": "submitSteps",
      "outputs": [],
      "stateMutability": "nonpayable",
      "type": "function"
    },
    {
      "inputs": [
        {
          "internalType": "address",
          "name": "newOracle",
          "type": "address"
        }
      ],
      "name": "updateOracle",
      "outputs": [],
      "stateMutability": "nonpayable",
      "type": "function"
    },
    {
      "inputs": [],
      "name": "withdraw",
      "outputs": [],
      "stateMutability": "nonpayable",
      "type": "function"
    }
  ],
  "bytecode": "0x60806040523480156200001157600080fd5b5060405162002cef38038062002cef83398181016040528101906200003791906200019b565b600073ffffffffffffffffffffffffffffffffffffffff168173ffffffffffffffffffffffffffffffffffffffff1603620000a9576040517f08c379a0000000000000000000000000000000000000000000000000000000008152600401620000a0906200022e565b60405180910390fd5b336000806101000a81548173ffffffffffffffffffffffffffffffffffffffff021916908373ffffffffffffffffffffffffffffffffffffffff16021790555080600160006101000a81548173ffffffffffffffffffffffffffffffffffffffff021916908373ffffffffffffffffffffffffffffffffffffffff1602179055505062000250565b600080fd5b600073ffffffffffffffffffffffffffffffffffffffff82169050919050565b6000620001638262000136565b9050919050565b620001758162000156565b81146200018157600080fd5b50565b60008151905062000195816200016a565b92915050565b600060208284031215620001b457620001b362000131565b5b6000620001c48482850162000184565b91505092915050565b600082825260208201905092915050565b7f496e76616c6964206f7261636c65206164647265737300000000000000000000600082015250565b600062000216601683620001cd565b91506200022382620001de565b602082019050919050565b60006020820190508181036000830152620002498162000207565b9050919050565b612a8f80620002606000396000f3fe6080604052600436106101095760003560e01c80637dc0d1d011610095578063ac4afa3811610064578063ac4afa3814610361578063b85502a0146103a1578063b8764c39146103de578063c477ecab1461041f578063f3f437031461045c57610109565b80637dc0d1d01461029e5780638259e6a0146102c957806388e179c7146102f95780638da5cb5b1461033657610109565b806334e7a19f116100dc57806334e7a19f146101c85780633ccfd60b146101e457806342525d5c146101fb578063567f539b14610224578063681947191461026157610109565b806305261aea1461010e5780630be427f01461013757806318e56131146101745780631cb44dfc1461019f575b600080fd5b34801561011a57600080fd5b5061013560048036038101906101309190611b1b565b610499565b005b34801561014357600080fd5b5061015e60048036038101906101599190611ba6565b6109d5565b60405161016b9190611bf5565b60405180910390f35b34801561018057600080fd5b506101896109fa565b6040516101969190611bf5565b60405180910390f35b3480156101ab57600080fd5b506101c660048036038101906101c19190611c10565b610a00565b005b6101e260048036038101906101dd9190611b1b565b610b41565b005b3480156101f057600080fd5b506101f9610e9d565b005b34801561020757600080fd5b50610222600480360381019061021d9190611ca2565b6110ed565b005b34801561023057600080fd5b5061024b60048036038101906102469190611ba6565b611430565b6040516102589190611bf5565b60405180910390f35b34801561026d57600080fd5b5061028860048036038101906102839190611ba6565b61148b565b6040516102959190611d45565b60405180910390f35b3480156102aa57600080fd5b506102b36114ba565b6040516102c09190611d6f565b60405180910390f35b6102e360048036038101906102de9190611b1b565b6114e0565b6040516102f09190611bf5565b60405180910390f35b34801561030557600080fd5b50610320600480360381019061031b9190611c10565b611770565b60405161032d9190611bf5565b60405180910390f35b34801561034257600080fd5b5061034b611788565b6040516103589190611d6f565b60405180910390f35b34801561036d57600080fd5b5061038860048036038101906103839190611b1b565b6117ac565b6040516103989493929190611d8a565b60405180910390f35b3480156103ad57600080fd5b506103c860048036038101906103c39190611ba6565b6117e9565b6040516103d59190611bf5565b60405180910390f35b3480156103ea57600080fd5b5061040560048036038101906104009190611b1b565b61180e565b604051610416959493929190611dcf565b60405180910390f35b34801561042b57600080fd5b5061044660048036038101906104419190611b1b565b6118c8565b6040516104539190611ee0565b60405180910390f35b34801561046857600080fd5b50610483600480360381019061047e9190611c10565b6119b2565b6040516104909190611bf5565b60405180910390f35b8060025481106104de576040517f08c379a00000000000000000000000000000000000000000000000000000000081526004016104d590611f5f565b60405180910390fd5b816003600082815260200190815260200160002060030160009054906101000a900460ff1615610543576040517f08c379a000000000000000000000000000000000000000000000000000000000815260040161053a90611fcb565b60405180910390fd5b600060036000858152602001908152602001600020905060018160030160006101000a81548160ff0219169083151502179055506000806000805b84600401805490508110156107115760008560040182815481106105a5576105a4611feb565b5b9060005260206000200160009054906101000a900473ffffffffffffffffffffffffffffffffffffffff1690508560010154600460008b815260200190815260200160002060008373ffffffffffffffffffffffffffffffffffffffff1673ffffffffffffffffffffffffffffffffffffffff168152602001908152602001600020541061069e57600460008a815260200190815260200160002060008273ffffffffffffffffffffffffffffffffffffffff1673ffffffffffffffffffffffffffffffffffffffff16815260200190815260200160002054846106899190612049565b935082806106969061207d565b9350506106fd565b600560008a815260200190815260200160002060008273ffffffffffffffffffffffffffffffffffffffff1673ffffffffffffffffffffffffffffffffffffffff16815260200190815260200160002054856106fa9190612049565b94505b5080806107099061207d565b91505061057e565b5060005b846004018054905081101561099157600085600401828154811061073c5761073b611feb565b5b9060005260206000200160009054906101000a900473ffffffffffffffffffffffffffffffffffffffff1690506000600460008b815260200190815260200160002060008373ffffffffffffffffffffffffffffffffffffffff1673ffffffffffffffffffffffffffffffffffffffff1681526020019081526020016000205490508660010154811061097c576000808611156107ed578587836107e091906120c5565b6107ea9190612136565b90505b80600560008d815260200190815260200160002060008573ffffffffffffffffffffffffffffffffffffffff1673ffffffffffffffffffffffffffffffffffffffff168152602001908152602001600020546108499190612049565b600760008573ffffffffffffffffffffffffffffffffffffffff1673ffffffffffffffffffffffffffffffffffffffff16815260200190815260200160002060008282546108979190612049565b925050819055506000600860008573ffffffffffffffffffffffffffffffffffffffff1673ffffffffffffffffffffffffffffffffffffffff168152602001908152602001600020540361097a576001600860008573ffffffffffffffffffffffffffffffffffffffff1673ffffffffffffffffffffffffffffffffffffffff168152602001908152602001600020819055508273ffffffffffffffffffffffffffffffffffffffff167f1538e5a8b6d7b9193ea22abf96eb33aa999b6bc1d9728157028f859e32dc2dbb600160405161097191906121ac565b60405180910390a25b505b505080806109899061207d565b915050610715565b50867f948d276f99b2a2c8aab331fce72671d5ce62be7409623629e7e42685709e36aa82856040516109c49291906121c7565b60405180910390a250505050505050565b6004602052816000526040600020602052806000526040600020600091509150505481565b60025481565b60008054906101000a900473ffffffffffffffffffffffffffffffffffffffff1673ffffffffffffffffffffffffffffffffffffffff163373ffffffffffffffffffffffffffffffffffffffff1614610a8e576040517f08c379a0000000000000000000000000000000000000000000000000000000008152600401610a859061223c565b60405180910390fd5b600073ffffffffffffffffffffffffffffffffffffffff168173ffffffffffffffffffffffffffffffffffffffff1603610afd576040517f08c379a0000000000000000000000000000000000000000000000000000000008152600401610af4906122a8565b60405180910390fd5b80600160006101000a81548173ffffffffffffffffffffffffffffffffffffffff021916908373ffffffffffffffffffffffffffffffffffffffff16021790555050565b806002548110610b86576040517f08c379a0000000000000000000000000000000000000000000000000000000008152600401610b7d90611f5f565b60405180910390fd5b816003600082815260200190815260200160002060030160009054906101000a900460ff1615610beb576040517f08c379a0000000000000000000000000000000000000000000000000000000008152600401610be290611fcb565b60405180910390fd5b600060036000858152602001908152602001600020905080600001543414610c48576040517f08c379a0000000000000000000000000000000000000000000000000000000008152600401610c3f90612314565b60405180910390fd5b6006600085815260200190815260200160002060003373ffffffffffffffffffffffffffffffffffffffff1673ffffffffffffffffffffffffffffffffffffffff16815260200190815260200160002060009054906101000a900460ff1615610ce6576040517f08c379a0000000000000000000000000000000000000000000000000000000008152600401610cdd90612380565b60405180910390fd5b6064816004018054905010610d30576040517f08c379a0000000000000000000000000000000000000000000000000000000008152600401610d27906123ec565b60405180910390fd5b80600401339080600181540180825580915050600190039060005260206000200160009091909190916101000a81548173ffffffffffffffffffffffffffffffffffffffff021916908373ffffffffffffffffffffffffffffffffffffffff160217905550346005600086815260200190815260200160002060003373ffffffffffffffffffffffffffffffffffffffff1673ffffffffffffffffffffffffffffffffffffffff1681526020019081526020016000208190555060016006600086815260200190815260200160002060003373ffffffffffffffffffffffffffffffffffffffff1673ffffffffffffffffffffffffffffffffffffffff16815260200190815260200160002060006101000a81548160ff0219169083151502179055503373ffffffffffffffffffffffffffffffffffffffff16847f87969bc7faf902221a147b95ceba76e011c5efb0339a0a8ee7a2bb82d9cfbbd660405160405180910390a350505050565b600960009054906101000a900460ff1615610eed576040517f08c379a0000000000000000000000000000000000000000000000000000000008152600401610ee490612458565b60405180910390fd5b6001600960006101000a81548160ff0219169083151502179055506000600760003373ffffffffffffffffffffffffffffffffffffffff1673ffffffffffffffffffffffffffffffffffffffff16815260200190815260200160002054905060008111610f8f576040517f08c379a0000000000000000000000000000000000000000000000000000000008152600401610f86906124c4565b60405180910390fd5b6000600760003373ffffffffffffffffffffffffffffffffffffffff1673ffffffffffffffffffffffffffffffffffffffff1681526020019081526020016000208190555060003373ffffffffffffffffffffffffffffffffffffffff1682604051610ffa90612515565b60006040518083038185875af1925050503d8060008114611037576040519150601f19603f3d011682016040523d82523d6000602084013e61103c565b606091505b5050905080611080576040517f08c379a000000000000000000000000000000000000000000000000000000000815260040161107790612576565b60405180910390fd5b3373ffffffffffffffffffffffffffffffffffffffff167f7fcf532c15f0a6db0bd6d0e038bea71d30d808c7d98cb3bf7268a95bf5081b65836040516110c69190611bf5565b60405180910390a250506000600960006101000a81548160ff021916908315150217905550565b846002548110611132576040517f08c379a000000000000000000000000000000000000000000000000000000000815260040161112990611f5f565b60405180910390fd5b856003600082815260200190815260200160002060030160009054906101000a900460ff1615611197576040517f08c379a000000000000000000000000000000000000000000000000000000000815260040161118e90611fcb565b60405180910390fd5b6006600088815260200190815260200160002060003373ffffffffffffffffffffffffffffffffffffffff1673ffffffffffffffffffffffffffffffffffffffff16815260200190815260200160002060009054906101000a900460ff16611234576040517f08c379a000000000000000000000000000000000000000000000000000000000815260040161122b906125e2565b60405180910390fd5b60008611611277576040517f08c379a000000000000000000000000000000000000000000000000000000000815260040161126e9061264e565b60405180910390fd5b60003388888860405160200161129094939291906126d7565b6040516020818303038152906040528051906020012090506000816040516020016112bb91906127a7565b604051602081830303815290604052805190602001209050600160009054906101000a900473ffffffffffffffffffffffffffffffffffffffff1673ffffffffffffffffffffffffffffffffffffffff166113178288886119ca565b73ffffffffffffffffffffffffffffffffffffffff161461136d576040517f08c379a000000000000000000000000000000000000000000000000000000000815260040161136490612819565b60405180910390fd5b87600460008b815260200190815260200160002060003373ffffffffffffffffffffffffffffffffffffffff1673ffffffffffffffffffffffffffffffffffffffff16815260200190815260200160002060008282546113cd9190612049565b925050819055503373ffffffffffffffffffffffffffffffffffffffff16897f73ddc27cdc0bdc93857b437514494542cba44220623561ad07455bad5e8870938a8a60405161141d9291906121c7565b60405180910390a3505050505050505050565b60006004600084815260200190815260200160002060008373ffffffffffffffffffffffffffffffffffffffff1673ffffffffffffffffffffffffffffffffffffffff16815260200190815260200160002054905092915050565b60066020528160005260406000206020528060005260406000206000915091509054906101000a900460ff1681565b600160009054906101000a900473ffffffffffffffffffffffffffffffffffffffff1681565b6000803411611524576040517f08c379a000000000000000000000000000000000000000000000000000000000815260040161151b90612885565b60405180910390fd5b60008211611567576040517f08c379a000000000000000000000000000000000000000000000000000000000815260040161155e906128f1565b60405180910390fd5b6002600081548092919061157a9061207d565b919050559050600060036000838152602001908152602001600020905034816000018190555082816001018190555042816002018190555080600401339080600181540180825580915050600190039060005260206000200160009091909190916101000a81548173ffffffffffffffffffffffffffffffffffffffff021916908373ffffffffffffffffffffffffffffffffffffffff160217905550346005600084815260200190815260200160002060003373ffffffffffffffffffffffffffffffffffffffff1673ffffffffffffffffffffffffffffffffffffffff1681526020019081526020016000208190555060016006600084815260200190815260200160002060003373ffffffffffffffffffffffffffffffffffffffff1673ffffffffffffffffffffffffffffffffffffffff16815260200190815260200160002060006101000a81548160ff0219169083151502179055503373ffffffffffffffffffffffffffffffffffffffff16827f154511729012ef776b8a51ae96d7429fa768546e62bec65af546cb3a5ff8f8ac348660405161171e9291906121c7565b60405180910390a33373ffffffffffffffffffffffffffffffffffffffff16827f87969bc7faf902221a147b95ceba76e011c5efb0339a0a8ee7a2bb82d9cfbbd660405160405180910390a350919050565b60086020528060005260406000206000915090505481565b60008054906101000a900473ffffffffffffffffffffffffffffffffffffffff1681565b60036020528060005260406000206000915090508060000154908060010154908060020154908060030160009054906101000a900460ff16905084565b6005602052816000526040600020602052806000526040600020600091509150505481565b600080600080600085600254811061185b576040517f08c379a000000000000000000000000000000000000000000000000000000000815260040161185290611f5f565b60405180910390fd5b600060036000898152602001908152602001600020905060008160000154826004018054905061188b91906120c5565b90508160000154826001015483600401805490508460030160009054906101000a900460ff16849750975097509750975050505091939590929450565b606081600254811061190f576040517f08c379a000000000000000000000000000000000000000000000000000000000815260040161190690611f5f565b60405180910390fd5b600360008481526020019081526020016000206004018054806020026020016040519081016040528092919081815260200182805480156119a557602002820191906000526020600020905b8160009054906101000a900473ffffffffffffffffffffffffffffffffffffffff1673ffffffffffffffffffffffffffffffffffffffff168152602001906001019080831161195b575b5050505050915050919050565b60076020528060005260406000206000915090505481565b600060418383905014611a12576040517f08c379a0000000000000000000000000000000000000000000000000000000008152600401611a099061295d565b60405180910390fd5b60008060008535925060208601359150604086013560001a9050601b8160ff161480611a415750601c8160ff16145b611a80576040517f08c379a0000000000000000000000000000000000000000000000000000000008152600401611a77906129c9565b60405180910390fd5b60018782858560405160008152602001604052604051611aa39493929190612a14565b6020604051602081039080840390855afa158015611ac5573d6000803e3d6000fd5b5050506020604051035193505050509392505050565b600080fd5b600080fd5b6000819050919050565b611af881611ae5565b8114611b0357600080fd5b50565b600081359050611b1581611aef565b92915050565b600060208284031215611b3157611b30611adb565b5b6000611b3f84828501611b06565b91505092915050565b600073ffffffffffffffffffffffffffffffffffffffff82169050919050565b6000611b7382611b48565b9050919050565b611b8381611b68565b8114611b8e57600080fd5b50565b600081359050611ba081611b7a565b92915050565b60008060408385031215611bbd57611bbc611adb565b5b6000611bcb85828601611b06565b9250506020611bdc85828601611b91565b9150509250929050565b611bef81611ae5565b82525050565b6000602082019050611c0a6000830184611be6565b92915050565b600060208284031215611c2657611c25611adb565b5b6000611c3484828501611b91565b91505092915050565b600080fd5b600080fd5b600080fd5b60008083601f840112611c6257611c61611c3d565b5b8235905067ffffffffffffffff811115611c7f57611c7e611c42565b5b602083019150836001820283011115611c9b57611c9a611c47565b5b9250929050565b600080600080600060808688031215611cbe57611cbd611adb565b5b6000611ccc88828901611b06565b9550506020611cdd88828901611b06565b9450506040611cee88828901611b06565b935050606086013567ffffffffffffffff811115611d0f57611d0e611ae0565b5b611d1b88828901611c4c565b92509250509295509295909350565b60008115159050919050565b611d3f81611d2a565b82525050565b6000602082019050611d5a6000830184611d36565b92915050565b611d6981611b68565b82525050565b6000602082019050611d846000830184611d60565b92915050565b6000608082019050611d9f6000830187611be6565b611dac6020830186611be6565b611db96040830185611be6565b611dc66060830184611d36565b95945050505050565b600060a082019050611de46000830188611be6565b611df16020830187611be6565b611dfe6040830186611be6565b611e0b6060830185611d36565b611e186080830184611be6565b9695505050505050565b600081519050919050565b600082825260208201905092915050565b6000819050602082019050919050565b611e5781611b68565b82525050565b6000611e698383611e4e565b60208301905092915050565b6000602082019050919050565b6000611e8d82611e22565b611e978185611e2d565b9350611ea283611e3e565b8060005b83811015611ed3578151611eba8882611e5d565b9750611ec583611e75565b925050600181019050611ea6565b5085935050505092915050565b60006020820190508181036000830152611efa8184611e82565b905092915050565b600082825260208201905092915050565b7f506f6f6c20646f6573206e6f7420657869737400000000000000000000000000600082015250565b6000611f49601383611f02565b9150611f5482611f13565b602082019050919050565b60006020820190508181036000830152611f7881611f3c565b9050919050565b7f506f6f6c20616c72656164792066696e616c697a656400000000000000000000600082015250565b6000611fb5601683611f02565b9150611fc082611f7f565b602082019050919050565b60006020820190508181036000830152611fe481611fa8565b9050919050565b7f4e487b7100000000000000000000000000000000000000000000000000000000600052603260045260246000fd5b7f4e487b7100000000000000000000000000000000000000000000000000000000600052601160045260246000fd5b600061205482611ae5565b915061205f83611ae5565b92508282019050808211156120775761207661201a565b5b92915050565b600061208882611ae5565b91507fffffffffffffffffffffffffffffffffffffffffffffffffffffffffffffffff82036120ba576120b961201a565b5b600182019050919050565b60006120d082611ae5565b91506120db83611ae5565b92508282026120e981611ae5565b91508282048414831517612100576120ff61201a565b5b5092915050565b7f4e487b7100000000000000000000000000000000000000000000000000000000600052601260045260246000fd5b600061214182611ae5565b915061214c83611ae5565b92508261215c5761215b612107565b5b828204905092915050565b6000819050919050565b6000819050919050565b600061219661219161218c84612167565b612171565b611ae5565b9050919050565b6121a68161217b565b82525050565b60006020820190506121c1600083018461219d565b92915050565b60006040820190506121dc6000830185611be6565b6121e96020830184611be6565b9392505050565b7f4e6f74206f776e65720000000000000000000000000000000000000000000000600082015250565b6000612226600983611f02565b9150612231826121f0565b602082019050919050565b6000602082019050818103600083015261225581612219565b9050919050565b7f496e76616c696420616464726573730000000000000000000000000000000000600082015250565b6000612292600f83611f02565b915061229d8261225c565b602082019050919050565b600060208201905081810360008301526122c181612285565b9050919050565b7f4d757374207374616b6520657861637420706f6f6c20616d6f756e7400000000600082015250565b60006122fe601c83611f02565b9150612309826122c8565b602082019050919050565b6000602082019050818103600083015261232d816122f1565b9050919050565b7f416c726561647920696e207468697320706f6f6c000000000000000000000000600082015250565b600061236a601483611f02565b915061237582612334565b602082019050919050565b600060208201905081810360008301526123998161235d565b9050919050565b7f506f6f6c2069732066756c6c0000000000000000000000000000000000000000600082015250565b60006123d6600c83611f02565b91506123e1826123a0565b602082019050919050565b60006020820190508181036000830152612405816123c9565b9050919050565b7f5265656e7472616e742063616c6c000000000000000000000000000000000000600082015250565b6000612442600e83611f02565b915061244d8261240c565b602082019050919050565b6000602082019050818103600083015261247181612435565b9050919050565b7f4e6f7468696e6720746f20776974686472617700000000000000000000000000600082015250565b60006124ae601383611f02565b91506124b982612478565b602082019050919050565b600060208201905081810360008301526124dd816124a1565b9050919050565b600081905092915050565b50565b60006124ff6000836124e4565b915061250a826124ef565b600082019050919050565b6000612520826124f2565b9150819050919050565b7f5472616e73666572206661696c65640000000000000000000000000000000000600082015250565b6000612560600f83611f02565b915061256b8261252a565b602082019050919050565b6000602082019050818103600083015261258f81612553565b9050919050565b7f4e6f742061206d656d626572206f66207468697320706f6f6c00000000000000600082015250565b60006125cc601983611f02565b91506125d782612596565b602082019050919050565b600060208201905081810360008301526125fb816125bf565b9050919050565b7f5374657073206d7573742062652067726561746572207468616e203000000000600082015250565b6000612638601c83611f02565b915061264382612602565b602082019050919050565b600060208201905081810360008301526126678161262b565b9050919050565b60008160601b9050919050565b60006126868261266e565b9050919050565b60006126988261267b565b9050919050565b6126b06126ab82611b68565b61268d565b82525050565b6000819050919050565b6126d16126cc82611ae5565b6126b6565b82525050565b60006126e3828761269f565b6014820191506126f382866126c0565b60208201915061270382856126c0565b60208201915061271382846126c0565b60208201915081905095945050505050565b600081905092915050565b7f19457468657265756d205369676e6564204d6573736167653a0a333200000000600082015250565b6000612766601c83612725565b915061277182612730565b601c82019050919050565b6000819050919050565b6000819050919050565b6127a161279c8261277c565b612786565b82525050565b60006127b282612759565b91506127be8284612790565b60208201915081905092915050565b7f496e76616c6964206f7261636c65207369676e61747572650000000000000000600082015250565b6000612803601883611f02565b915061280e826127cd565b602082019050919050565b60006020820190508181036000830152612832816127f6565b9050919050565b7f4d757374207374616b65204d4f4e20746f2063726561746520706f6f6c000000600082015250565b600061286f601d83611f02565b915061287a82612839565b602082019050919050565b6000602082019050818103600083015261289e81612862565b9050919050565b7f5374657020676f616c206d7573742062652067726561746572207468616e2030600082015250565b60006128db602083611f02565b91506128e6826128a5565b602082019050919050565b6000602082019050818103600083015261290a816128ce565b9050919050565b7f496e76616c6964207369676e6174757265206c656e6774680000000000000000600082015250565b6000612947601883611f02565b915061295282612911565b602082019050919050565b600060208201905081810360008301526129768161293a565b9050919050565b7f496e76616c6964207369676e617475726520762076616c756500000000000000600082015250565b60006129b3601983611f02565b91506129be8261297d565b602082019050919050565b600060208201905081810360008301526129e2816129a6565b9050919050565b6129f28161277c565b82525050565b600060ff82169050919050565b612a0e816129f8565b82525050565b6000608082019050612a2960008301876129e9565b612a366020830186612a05565b612a4360408301856129e9565b612a5060608301846129e9565b9594505050505056fea26469706673582212208059cdb86396dfb6fcb2dc84628f5ca5a6c5a4d55dd26a1608c886167bdc5ee564736f6c63430008140033",
  "linkReferences": {},
  "deployedLinkReferences": {}
}